{
  "_format": "hh-sol-artifact-1",
  "contractName": "MetafiBridge",
  "sourceName": "contracts/eth-nyc/MetafiBridge.sol",
  "abi": [
    {
      "inputs": [
        {
          "internalType": "address",
          "name": "_lzEndpoint",
          "type": "address"
        }
      ],
      "stateMutability": "nonpayable",
      "type": "constructor"
    },
    {
      "anonymous": false,
      "inputs": [
        {
          "indexed": false,
          "internalType": "uint16",
          "name": "_srcChainId",
          "type": "uint16"
        },
        {
          "indexed": false,
          "internalType": "bytes",
          "name": "_srcAddress",
          "type": "bytes"
        },
        {
          "indexed": false,
          "internalType": "uint64",
          "name": "_nonce",
          "type": "uint64"
        },
        {
          "indexed": false,
          "internalType": "bytes",
          "name": "_payload",
          "type": "bytes"
        }
      ],
      "name": "MessageFailed",
      "type": "event"
    },
    {
      "anonymous": false,
      "inputs": [
        {
          "indexed": true,
          "internalType": "address",
          "name": "previousOwner",
          "type": "address"
        },
        {
          "indexed": true,
          "internalType": "address",
          "name": "newOwner",
          "type": "address"
        }
      ],
      "name": "OwnershipTransferred",
      "type": "event"
    },
    {
      "anonymous": false,
      "inputs": [
        {
          "indexed": false,
          "internalType": "uint16",
          "name": "_srcChainId",
          "type": "uint16"
        },
        {
          "indexed": false,
          "internalType": "bytes",
          "name": "_srcAddress",
          "type": "bytes"
        }
      ],
      "name": "SetTrustedRemote",
      "type": "event"
    },
    {
      "anonymous": false,
      "inputs": [
        {
          "indexed": false,
          "internalType": "uint256",
          "name": "amt",
          "type": "uint256"
        },
        {
          "indexed": false,
          "internalType": "address",
          "name": "destAddr",
          "type": "address"
        }
      ],
      "name": "TransferToDest",
      "type": "event"
    },
    {
      "inputs": [
        {
          "internalType": "uint16",
          "name": "",
          "type": "uint16"
        },
        {
          "internalType": "bytes",
          "name": "",
          "type": "bytes"
        },
        {
          "internalType": "uint64",
          "name": "",
          "type": "uint64"
        }
      ],
      "name": "failedMessages",
      "outputs": [
        {
          "internalType": "bytes32",
          "name": "",
          "type": "bytes32"
        }
      ],
      "stateMutability": "view",
      "type": "function"
    },
    {
      "inputs": [
        {
          "internalType": "uint16",
          "name": "_srcChainId",
          "type": "uint16"
        },
        {
          "internalType": "bytes",
          "name": "_srcAddress",
          "type": "bytes"
        }
      ],
      "name": "forceResumeReceive",
      "outputs": [],
      "stateMutability": "nonpayable",
      "type": "function"
    },
    {
      "inputs": [
        {
          "internalType": "uint16",
          "name": "_version",
          "type": "uint16"
        },
        {
          "internalType": "uint16",
          "name": "_chainId",
          "type": "uint16"
        },
        {
          "internalType": "address",
          "name": "",
          "type": "address"
        },
        {
          "internalType": "uint256",
          "name": "_configType",
          "type": "uint256"
        }
      ],
      "name": "getConfig",
      "outputs": [
        {
          "internalType": "bytes",
          "name": "",
          "type": "bytes"
        }
      ],
      "stateMutability": "view",
      "type": "function"
    },
    {
      "inputs": [
        {
          "internalType": "uint16",
          "name": "_srcChainId",
          "type": "uint16"
        },
        {
          "internalType": "bytes",
          "name": "_srcAddress",
          "type": "bytes"
        }
      ],
      "name": "isTrustedRemote",
      "outputs": [
        {
          "internalType": "bool",
          "name": "",
          "type": "bool"
        }
      ],
      "stateMutability": "view",
      "type": "function"
    },
    {
      "inputs": [],
      "name": "lzEndpoint",
      "outputs": [
        {
          "internalType": "contract ILayerZeroEndpoint",
          "name": "",
          "type": "address"
        }
      ],
      "stateMutability": "view",
      "type": "function"
    },
    {
      "inputs": [
        {
          "internalType": "uint16",
          "name": "_srcChainId",
          "type": "uint16"
        },
        {
          "internalType": "bytes",
          "name": "_srcAddress",
          "type": "bytes"
        },
        {
          "internalType": "uint64",
          "name": "_nonce",
          "type": "uint64"
        },
        {
          "internalType": "bytes",
          "name": "_payload",
          "type": "bytes"
        }
      ],
      "name": "lzReceive",
      "outputs": [],
      "stateMutability": "nonpayable",
      "type": "function"
    },
    {
      "inputs": [
        {
          "internalType": "uint16",
          "name": "_srcChainId",
          "type": "uint16"
        },
        {
          "internalType": "bytes",
          "name": "_srcAddress",
          "type": "bytes"
        },
        {
          "internalType": "uint64",
          "name": "_nonce",
          "type": "uint64"
        },
        {
          "internalType": "bytes",
          "name": "_payload",
          "type": "bytes"
        }
      ],
      "name": "nonblockingLzReceive",
      "outputs": [],
      "stateMutability": "nonpayable",
      "type": "function"
    },
    {
      "inputs": [],
      "name": "owner",
      "outputs": [
        {
          "internalType": "address",
          "name": "",
          "type": "address"
        }
      ],
      "stateMutability": "view",
      "type": "function"
    },
    {
      "inputs": [
        {
          "internalType": "uint16",
          "name": "_dstChainId",
          "type": "uint16"
        },
        {
          "internalType": "address",
          "name": "_dstMetafiBridgeAddr",
          "type": "address"
        },
        {
          "internalType": "uint256",
          "name": "amount",
          "type": "uint256"
        },
        {
          "internalType": "address",
          "name": "dstAddr",
          "type": "address"
        }
      ],
      "name": "pay",
      "outputs": [],
      "stateMutability": "payable",
      "type": "function"
    },
    {
      "inputs": [],
      "name": "renounceOwnership",
      "outputs": [],
      "stateMutability": "nonpayable",
      "type": "function"
    },
    {
      "inputs": [
        {
          "internalType": "uint16",
          "name": "_srcChainId",
          "type": "uint16"
        },
        {
          "internalType": "bytes",
          "name": "_srcAddress",
          "type": "bytes"
        },
        {
          "internalType": "uint64",
          "name": "_nonce",
          "type": "uint64"
        },
        {
          "internalType": "bytes",
          "name": "_payload",
          "type": "bytes"
        }
      ],
      "name": "retryMessage",
      "outputs": [],
      "stateMutability": "payable",
      "type": "function"
    },
    {
      "inputs": [
        {
          "internalType": "uint16",
          "name": "_version",
          "type": "uint16"
        },
        {
          "internalType": "uint16",
          "name": "_chainId",
          "type": "uint16"
        },
        {
          "internalType": "uint256",
          "name": "_configType",
          "type": "uint256"
        },
        {
          "internalType": "bytes",
          "name": "_config",
          "type": "bytes"
        }
      ],
      "name": "setConfig",
      "outputs": [],
      "stateMutability": "nonpayable",
      "type": "function"
    },
    {
      "inputs": [
        {
          "internalType": "uint16",
          "name": "_version",
          "type": "uint16"
        }
      ],
      "name": "setReceiveVersion",
      "outputs": [],
      "stateMutability": "nonpayable",
      "type": "function"
    },
    {
      "inputs": [
        {
          "internalType": "uint16",
          "name": "_version",
          "type": "uint16"
        }
      ],
      "name": "setSendVersion",
      "outputs": [],
      "stateMutability": "nonpayable",
      "type": "function"
    },
    {
      "inputs": [
        {
          "internalType": "uint16",
          "name": "_srcChainId",
          "type": "uint16"
        },
        {
          "internalType": "bytes",
          "name": "_srcAddress",
          "type": "bytes"
        }
      ],
      "name": "setTrustedRemote",
      "outputs": [],
      "stateMutability": "nonpayable",
      "type": "function"
    },
    {
      "inputs": [
        {
          "internalType": "address",
          "name": "newOwner",
          "type": "address"
        }
      ],
      "name": "transferOwnership",
      "outputs": [],
      "stateMutability": "nonpayable",
      "type": "function"
    },
    {
      "inputs": [
        {
          "internalType": "uint16",
          "name": "",
          "type": "uint16"
        }
      ],
      "name": "trustedRemoteLookup",
      "outputs": [
        {
          "internalType": "bytes",
          "name": "",
          "type": "bytes"
        }
      ],
      "stateMutability": "view",
      "type": "function"
    },
    {
      "stateMutability": "payable",
      "type": "receive"
    }
  ],
  "bytecode": "0x60a06040523480156200001157600080fd5b50604051620032cc380380620032cc83398181016040528101906200003791906200017c565b8080620000596200004d6200009960201b60201c565b620000a160201b60201c565b8073ffffffffffffffffffffffffffffffffffffffff1660808173ffffffffffffffffffffffffffffffffffffffff1660601b81525050505050620001f6565b600033905090565b60008060009054906101000a900473ffffffffffffffffffffffffffffffffffffffff169050816000806101000a81548173ffffffffffffffffffffffffffffffffffffffff021916908373ffffffffffffffffffffffffffffffffffffffff1602179055508173ffffffffffffffffffffffffffffffffffffffff168173ffffffffffffffffffffffffffffffffffffffff167f8be0079c531659141344cd1fd0a4f28419497f9722a3daafe3b4186f6b6457e060405160405180910390a35050565b6000815190506200017681620001dc565b92915050565b6000602082840312156200018f57600080fd5b60006200019f8482850162000165565b91505092915050565b6000620001b582620001bc565b9050919050565b600073ffffffffffffffffffffffffffffffffffffffff82169050919050565b620001e781620001a8565b8114620001f357600080fd5b50565b60805160601c61307f6200024d600039600081816103f001528181610619015281816107230152818161095d01528181610a5401528181610ca301528181610f5701528181610ff701526113d9015261307f6000f3fe6080604052600436106101015760003560e01c8063715018a611610095578063cbed8b9c11610064578063cbed8b9c1461031a578063d1deba1f14610343578063eb8d72b71461035f578063f2fde38b14610388578063f5ecbdbc146103b157610108565b8063715018a6146102705780637533d788146102875780638da5cb5b146102c4578063b353aaa7146102ef57610108565b80633d8b38f6116100d15780633d8b38f6146101a457806342d65a8d146101e15780635b8c41e61461020a57806366ad5c8a1461024757610108565b80621d35671461010d57806307e0db171461013657806310ddb1371461015f57806331316aba1461018857610108565b3661010857005b600080fd5b34801561011957600080fd5b50610134600480360381019061012f9190611e95565b6103ee565b005b34801561014257600080fd5b5061015d60048036038101906101589190611d4a565b61059b565b005b34801561016b57600080fd5b5061018660048036038101906101819190611d4a565b6106a5565b005b6101a2600480360381019061019d9190611d73565b6107af565b005b3480156101b057600080fd5b506101cb60048036038101906101c69190611dd6565b610b51565b6040516101d89190612448565b60405180910390f35b3480156101ed57600080fd5b5061020860048036038101906102039190611dd6565b610c25565b005b34801561021657600080fd5b50610231600480360381019061022c9190611e2e565b610d35565b60405161023e9190612463565b60405180910390f35b34801561025357600080fd5b5061026e60048036038101906102699190611e95565b610d7d565b005b34801561027c57600080fd5b50610285610e04565b005b34801561029357600080fd5b506102ae60048036038101906102a99190611d4a565b610e8c565b6040516102bb919061247e565b60405180910390f35b3480156102d057600080fd5b506102d9610f2c565b6040516102e6919061242d565b60405180910390f35b3480156102fb57600080fd5b50610304610f55565b60405161031191906124a0565b60405180910390f35b34801561032657600080fd5b50610341600480360381019061033c9190611f8b565b610f79565b005b61035d60048036038101906103589190611e95565b61108f565b005b34801561036b57600080fd5b5061038660048036038101906103819190611dd6565b6111f6565b005b34801561039457600080fd5b506103af60048036038101906103aa9190611cb7565b6112dd565b005b3480156103bd57600080fd5b506103d860048036038101906103d39190611f28565b6113d5565b6040516103e5919061247e565b60405180910390f35b7f000000000000000000000000000000000000000000000000000000000000000073ffffffffffffffffffffffffffffffffffffffff1661042d611495565b73ffffffffffffffffffffffffffffffffffffffff1614610483576040517f08c379a000000000000000000000000000000000000000000000000000000000815260040161047a90612677565b60405180910390fd5b6000600160008661ffff1661ffff16815260200190815260200160002080546104ab90612adf565b80601f01602080910402602001604051908101604052809291908181526020018280546104d790612adf565b80156105245780601f106104f957610100808354040283529160200191610524565b820191906000526020600020905b81548152906001019060200180831161050757829003601f168201915b5050505050905080518451148015610549575080805190602001208480519060200120145b610588576040517f08c379a000000000000000000000000000000000000000000000000000000000815260040161057f906126d7565b60405180910390fd5b6105948585858561149d565b5050505050565b6105a3611495565b73ffffffffffffffffffffffffffffffffffffffff166105c1610f2c565b73ffffffffffffffffffffffffffffffffffffffff1614610617576040517f08c379a000000000000000000000000000000000000000000000000000000000815260040161060e90612657565b60405180910390fd5b7f000000000000000000000000000000000000000000000000000000000000000073ffffffffffffffffffffffffffffffffffffffff166307e0db17826040518263ffffffff1660e01b815260040161067091906126f7565b600060405180830381600087803b15801561068a57600080fd5b505af115801561069e573d6000803e3d6000fd5b5050505050565b6106ad611495565b73ffffffffffffffffffffffffffffffffffffffff166106cb610f2c565b73ffffffffffffffffffffffffffffffffffffffff1614610721576040517f08c379a000000000000000000000000000000000000000000000000000000000815260040161071890612657565b60405180910390fd5b7f000000000000000000000000000000000000000000000000000000000000000073ffffffffffffffffffffffffffffffffffffffff166310ddb137826040518263ffffffff1660e01b815260040161077a91906126f7565b600060405180830381600087803b15801561079457600080fd5b505af11580156107a8573d6000803e3d6000fd5b5050505050565b6107d36040518060600160405280602b815260200161301f602b91393084846115bc565b3073ffffffffffffffffffffffffffffffffffffffff16633d8b38f6858560405160200161080191906123b6565b6040516020818303038152906040526040518363ffffffff1660e01b815260040161082d9291906127a5565b60206040518083038186803b15801561084557600080fd5b505afa158015610859573d6000803e3d6000fd5b505050506040513d601f19601f8201168201806040525081019061087d9190611ce0565b6108bc576040517f08c379a00000000000000000000000000000000000000000000000000000000081526004016108b390612617565b60405180910390fd5b600047116108ff576040517f08c379a00000000000000000000000000000000000000000000000000000000081526004016108f690612697565b60405180910390fd5b60008282604051602001610914929190612931565b6040516020818303038152906040529050600060019050600062055730905060008282604051602001610948929190612401565b604051602081830303815290604052905060007f000000000000000000000000000000000000000000000000000000000000000073ffffffffffffffffffffffffffffffffffffffff166340a7bb108a30886000876040518663ffffffff1660e01b81526004016109bd959493929190612712565b604080518083038186803b1580156109d457600080fd5b505afa1580156109e8573d6000803e3d6000fd5b505050506040513d601f19601f82011682018060405250810190610a0c9190612047565b50905080471015610a52576040517f08c379a0000000000000000000000000000000000000000000000000000000008152600401610a4990612637565b60405180910390fd5b7f000000000000000000000000000000000000000000000000000000000000000073ffffffffffffffffffffffffffffffffffffffff1663c5803100828b8b604051602001610aa191906123b6565b60405160208183030381529060405289306000896040518863ffffffff1660e01b8152600401610ad6969594939291906127d5565b6000604051808303818588803b158015610aef57600080fd5b505af1158015610b03573d6000803e3d6000fd5b5050505050610b466040518060400160405280601481526020017f6c656176696e67207061792066756e6374696f6e00000000000000000000000081525061165e565b505050505050505050565b600080600160008661ffff1661ffff1681526020019081526020016000208054610b7a90612adf565b80601f0160208091040260200160405190810160405280929190818152602001828054610ba690612adf565b8015610bf35780601f10610bc857610100808354040283529160200191610bf3565b820191906000526020600020905b815481529060010190602001808311610bd657829003601f168201915b505050505090508383604051610c0a9291906123d1565b60405180910390208180519060200120149150509392505050565b610c2d611495565b73ffffffffffffffffffffffffffffffffffffffff16610c4b610f2c565b73ffffffffffffffffffffffffffffffffffffffff1614610ca1576040517f08c379a0000000000000000000000000000000000000000000000000000000008152600401610c9890612657565b60405180910390fd5b7f000000000000000000000000000000000000000000000000000000000000000073ffffffffffffffffffffffffffffffffffffffff166342d65a8d8484846040518463ffffffff1660e01b8152600401610cfe93929190612773565b600060405180830381600087803b158015610d1857600080fd5b505af1158015610d2c573d6000803e3d6000fd5b50505050505050565b60026020528260005260406000208280516020810182018051848252602083016020850120818352809550505050505060205280600052604060002060009250925050505481565b3073ffffffffffffffffffffffffffffffffffffffff16610d9c611495565b73ffffffffffffffffffffffffffffffffffffffff1614610df2576040517f08c379a0000000000000000000000000000000000000000000000000000000008152600401610de990612597565b60405180910390fd5b610dfe848484846116f7565b50505050565b610e0c611495565b73ffffffffffffffffffffffffffffffffffffffff16610e2a610f2c565b73ffffffffffffffffffffffffffffffffffffffff1614610e80576040517f08c379a0000000000000000000000000000000000000000000000000000000008152600401610e7790612657565b60405180910390fd5b610e8a600061183f565b565b60016020528060005260406000206000915090508054610eab90612adf565b80601f0160208091040260200160405190810160405280929190818152602001828054610ed790612adf565b8015610f245780601f10610ef957610100808354040283529160200191610f24565b820191906000526020600020905b815481529060010190602001808311610f0757829003601f168201915b505050505081565b60008060009054906101000a900473ffffffffffffffffffffffffffffffffffffffff16905090565b7f000000000000000000000000000000000000000000000000000000000000000081565b610f81611495565b73ffffffffffffffffffffffffffffffffffffffff16610f9f610f2c565b73ffffffffffffffffffffffffffffffffffffffff1614610ff5576040517f08c379a0000000000000000000000000000000000000000000000000000000008152600401610fec90612657565b60405180910390fd5b7f000000000000000000000000000000000000000000000000000000000000000073ffffffffffffffffffffffffffffffffffffffff1663cbed8b9c86868686866040518663ffffffff1660e01b81526004016110569594939291906128e3565b600060405180830381600087803b15801561107057600080fd5b505af1158015611084573d6000803e3d6000fd5b505050505050505050565b6000600260008661ffff1661ffff168152602001908152602001600020846040516110ba91906123ea565b908152602001604051809103902060008467ffffffffffffffff1667ffffffffffffffff1681526020019081526020016000205490506000801b811415611136576040517f08c379a000000000000000000000000000000000000000000000000000000000815260040161112d906125f7565b60405180910390fd5b8082805190602001201461117f576040517f08c379a0000000000000000000000000000000000000000000000000000000008152600401611176906126b7565b60405180910390fd5b6000801b600260008761ffff1661ffff168152602001908152602001600020856040516111ac91906123ea565b908152602001604051809103902060008567ffffffffffffffff1667ffffffffffffffff168152602001908152602001600020819055506111ef858585856116f7565b5050505050565b6111fe611495565b73ffffffffffffffffffffffffffffffffffffffff1661121c610f2c565b73ffffffffffffffffffffffffffffffffffffffff1614611272576040517f08c379a000000000000000000000000000000000000000000000000000000000815260040161126990612657565b60405180910390fd5b8181600160008661ffff1661ffff168152602001908152602001600020919061129c929190611a67565b507ffa41487ad5d6728f0b19276fa1eddc16558578f5109fc39d2dc33c3230470dab8383836040516112d093929190612773565b60405180910390a1505050565b6112e5611495565b73ffffffffffffffffffffffffffffffffffffffff16611303610f2c565b73ffffffffffffffffffffffffffffffffffffffff1614611359576040517f08c379a000000000000000000000000000000000000000000000000000000000815260040161135090612657565b60405180910390fd5b600073ffffffffffffffffffffffffffffffffffffffff168173ffffffffffffffffffffffffffffffffffffffff1614156113c9576040517f08c379a00000000000000000000000000000000000000000000000000000000081526004016113c0906125d7565b60405180910390fd5b6113d28161183f565b50565b60607f000000000000000000000000000000000000000000000000000000000000000073ffffffffffffffffffffffffffffffffffffffff1663f5ecbdbc868630866040518563ffffffff1660e01b8152600401611436949392919061289e565b60006040518083038186803b15801561144e57600080fd5b505afa158015611462573d6000803e3d6000fd5b505050506040513d6000823e3d601f19601f8201168201806040525081019061148b9190611d09565b9050949350505050565b600033905090565b3073ffffffffffffffffffffffffffffffffffffffff166366ad5c8a858585856040518563ffffffff1660e01b81526004016114dc949392919061284b565b600060405180830381600087803b1580156114f657600080fd5b505af1925050508015611507575060015b6115b5578080519060200120600260008661ffff1661ffff1681526020019081526020016000208460405161153c91906123ea565b908152602001604051809103902060008467ffffffffffffffff1667ffffffffffffffff168152602001908152602001600020819055507fe6f254030bcb01ffd20558175c13fcaed6d1520be7becee4c961b65f79243b0d848484846040516115a8949392919061284b565b60405180910390a16115b6565b5b50505050565b611658848484846040516024016115d6949392919061250d565b6040516020818303038152906040527fa366ec80000000000000000000000000000000000000000000000000000000007bffffffffffffffffffffffffffffffffffffffffffffffffffffffff19166020820180517bffffffffffffffffffffffffffffffffffffffffffffffffffffffff8381831617835250505050611903565b50505050565b6116f48160405160240161167291906124bb565b6040516020818303038152906040527f41304fac000000000000000000000000000000000000000000000000000000007bffffffffffffffffffffffffffffffffffffffffffffffffffffffff19166020820180517bffffffffffffffffffffffffffffffffffffffffffffffffffffffff8381831617835250505050611903565b50565b611719604051806060016040528060248152602001612ffb602491393061192c565b60008082806020019051810190611730919061200b565b915091506117746040518060400160405280601f81526020017f726563656976656420616d6f756e743d25732c2064657374416464723d25730081525083836119c8565b814710156117b7576040517f08c379a00000000000000000000000000000000000000000000000000000000081526004016117ae906125b7565b60405180910390fd5b8073ffffffffffffffffffffffffffffffffffffffff166108fc839081150290604051600060405180830381858888f193505050501580156117fd573d6000803e3d6000fd5b507fafcaab7456ac1c83ac0d57d92742249ca0d84a55b827f7eaaaead634a0a69b92828260405161182f929190612931565b60405180910390a1505050505050565b60008060009054906101000a900473ffffffffffffffffffffffffffffffffffffffff169050816000806101000a81548173ffffffffffffffffffffffffffffffffffffffff021916908373ffffffffffffffffffffffffffffffffffffffff1602179055508173ffffffffffffffffffffffffffffffffffffffff168173ffffffffffffffffffffffffffffffffffffffff167f8be0079c531659141344cd1fd0a4f28419497f9722a3daafe3b4186f6b6457e060405160405180910390a35050565b60008151905060006a636f6e736f6c652e6c6f679050602083016000808483855afa5050505050565b6119c482826040516024016119429291906124dd565b6040516020818303038152906040527f319af333000000000000000000000000000000000000000000000000000000007bffffffffffffffffffffffffffffffffffffffffffffffffffffffff19166020820180517bffffffffffffffffffffffffffffffffffffffffffffffffffffffff8381831617835250505050611903565b5050565b611a628383836040516024016119e093929190612559565b6040516020818303038152906040527fe3849f79000000000000000000000000000000000000000000000000000000007bffffffffffffffffffffffffffffffffffffffffffffffffffffffff19166020820180517bffffffffffffffffffffffffffffffffffffffffffffffffffffffff8381831617835250505050611903565b505050565b828054611a7390612adf565b90600052602060002090601f016020900481019282611a955760008555611adc565b82601f10611aae57803560ff1916838001178555611adc565b82800160010185558215611adc579182015b82811115611adb578235825591602001919060010190611ac0565b5b509050611ae99190611aed565b5090565b5b80821115611b06576000816000905550600101611aee565b5090565b6000611b1d611b188461297f565b61295a565b905082815260208101848484011115611b3557600080fd5b611b40848285612a9d565b509392505050565b6000611b5b611b568461297f565b61295a565b905082815260208101848484011115611b7357600080fd5b611b7e848285612aac565b509392505050565b600081359050611b9581612f70565b92915050565b600081519050611baa81612f87565b92915050565b600081519050611bbf81612f9e565b92915050565b60008083601f840112611bd757600080fd5b8235905067ffffffffffffffff811115611bf057600080fd5b602083019150836001820283011115611c0857600080fd5b9250929050565b600082601f830112611c2057600080fd5b8135611c30848260208601611b0a565b91505092915050565b600082601f830112611c4a57600080fd5b8151611c5a848260208601611b48565b91505092915050565b600081359050611c7281612fb5565b92915050565b600081359050611c8781612fcc565b92915050565b600081519050611c9c81612fcc565b92915050565b600081359050611cb181612fe3565b92915050565b600060208284031215611cc957600080fd5b6000611cd784828501611b86565b91505092915050565b600060208284031215611cf257600080fd5b6000611d0084828501611bb0565b91505092915050565b600060208284031215611d1b57600080fd5b600082015167ffffffffffffffff811115611d3557600080fd5b611d4184828501611c39565b91505092915050565b600060208284031215611d5c57600080fd5b6000611d6a84828501611c63565b91505092915050565b60008060008060808587031215611d8957600080fd5b6000611d9787828801611c63565b9450506020611da887828801611b86565b9350506040611db987828801611c78565b9250506060611dca87828801611b86565b91505092959194509250565b600080600060408486031215611deb57600080fd5b6000611df986828701611c63565b935050602084013567ffffffffffffffff811115611e1657600080fd5b611e2286828701611bc5565b92509250509250925092565b600080600060608486031215611e4357600080fd5b6000611e5186828701611c63565b935050602084013567ffffffffffffffff811115611e6e57600080fd5b611e7a86828701611c0f565b9250506040611e8b86828701611ca2565b9150509250925092565b60008060008060808587031215611eab57600080fd5b6000611eb987828801611c63565b945050602085013567ffffffffffffffff811115611ed657600080fd5b611ee287828801611c0f565b9350506040611ef387828801611ca2565b925050606085013567ffffffffffffffff811115611f1057600080fd5b611f1c87828801611c0f565b91505092959194509250565b60008060008060808587031215611f3e57600080fd5b6000611f4c87828801611c63565b9450506020611f5d87828801611c63565b9350506040611f6e87828801611b86565b9250506060611f7f87828801611c78565b91505092959194509250565b600080600080600060808688031215611fa357600080fd5b6000611fb188828901611c63565b9550506020611fc288828901611c63565b9450506040611fd388828901611c78565b935050606086013567ffffffffffffffff811115611ff057600080fd5b611ffc88828901611bc5565b92509250509295509295909350565b6000806040838503121561201e57600080fd5b600061202c85828601611c8d565b925050602061203d85828601611b9b565b9150509250929050565b6000806040838503121561205a57600080fd5b600061206885828601611c8d565b925050602061207985828601611c8d565b9150509250929050565b61208c81612a05565b82525050565b61209b816129f3565b82525050565b6120b26120ad826129f3565b612b42565b82525050565b6120c181612a17565b82525050565b6120d081612a23565b82525050565b60006120e283856129c6565b93506120ef838584612a9d565b6120f883612be0565b840190509392505050565b600061210f83856129d7565b935061211c838584612a9d565b82840190509392505050565b6000612133826129b0565b61213d81856129c6565b935061214d818560208601612aac565b61215681612be0565b840191505092915050565b600061216c826129b0565b61217681856129d7565b9350612186818560208601612aac565b80840191505092915050565b61219b81612a79565b82525050565b60006121ac826129bb565b6121b681856129e2565b93506121c6818560208601612aac565b6121cf81612be0565b840191505092915050565b60006121e76026836129e2565b91506121f282612c0b565b604082019050919050565b600061220a6033836129e2565b915061221582612c5a565b604082019050919050565b600061222d6026836129e2565b915061223882612ca9565b604082019050919050565b60006122506023836129e2565b915061225b82612cf8565b604082019050919050565b60006122736048836129e2565b915061227e82612d47565b606082019050919050565b60006122966046836129e2565b91506122a182612dbc565b606082019050919050565b60006122b96020836129e2565b91506122c482612e31565b602082019050919050565b60006122dc601e836129e2565b91506122e782612e5a565b602082019050919050565b60006122ff6040836129e2565b915061230a82612e83565b604082019050919050565b60006123226021836129e2565b915061232d82612ed2565b604082019050919050565b60006123456026836129e2565b915061235082612f21565b604082019050919050565b61236481612a2d565b82525050565b61237b61237682612a2d565b612b54565b82525050565b61238a81612a5b565b82525050565b6123a161239c82612a5b565b612b78565b82525050565b6123b081612a65565b82525050565b60006123c282846120a1565b60148201915081905092915050565b60006123de828486612103565b91508190509392505050565b60006123f68284612161565b915081905092915050565b600061240d828561236a565b60028201915061241d8284612390565b6020820191508190509392505050565b60006020820190506124426000830184612092565b92915050565b600060208201905061245d60008301846120b8565b92915050565b600060208201905061247860008301846120c7565b92915050565b600060208201905081810360008301526124988184612128565b905092915050565b60006020820190506124b56000830184612192565b92915050565b600060208201905081810360008301526124d581846121a1565b905092915050565b600060408201905081810360008301526124f781856121a1565b90506125066020830184612092565b9392505050565b6000608082019050818103600083015261252781876121a1565b90506125366020830186612092565b6125436040830185612381565b6125506060830184612092565b95945050505050565b6000606082019050818103600083015261257381866121a1565b90506125826020830185612381565b61258f6040830184612092565b949350505050565b600060208201905081810360008301526125b0816121da565b9050919050565b600060208201905081810360008301526125d0816121fd565b9050919050565b600060208201905081810360008301526125f081612220565b9050919050565b6000602082019050818103600083015261261081612243565b9050919050565b6000602082019050818103600083015261263081612266565b9050919050565b6000602082019050818103600083015261265081612289565b9050919050565b60006020820190508181036000830152612670816122ac565b9050919050565b60006020820190508181036000830152612690816122cf565b9050919050565b600060208201905081810360008301526126b0816122f2565b9050919050565b600060208201905081810360008301526126d081612315565b9050919050565b600060208201905081810360008301526126f081612338565b9050919050565b600060208201905061270c600083018461235b565b92915050565b600060a082019050612727600083018861235b565b6127346020830187612092565b81810360408301526127468186612128565b905061275560608301856120b8565b81810360808301526127678184612128565b90509695505050505050565b6000604082019050612788600083018661235b565b818103602083015261279b8184866120d6565b9050949350505050565b60006040820190506127ba600083018561235b565b81810360208301526127cc8184612128565b90509392505050565b600060c0820190506127ea600083018961235b565b81810360208301526127fc8188612128565b905081810360408301526128108187612128565b905061281f6060830186612083565b61282c6080830185612092565b81810360a083015261283e8184612128565b9050979650505050505050565b6000608082019050612860600083018761235b565b81810360208301526128728186612128565b905061288160408301856123a7565b81810360608301526128938184612128565b905095945050505050565b60006080820190506128b3600083018761235b565b6128c0602083018661235b565b6128cd6040830185612092565b6128da6060830184612381565b95945050505050565b60006080820190506128f8600083018861235b565b612905602083018761235b565b6129126040830186612381565b81810360608301526129258184866120d6565b90509695505050505050565b60006040820190506129466000830185612381565b6129536020830184612092565b9392505050565b6000612964612975565b90506129708282612b11565b919050565b6000604051905090565b600067ffffffffffffffff82111561299a57612999612bb1565b5b6129a382612be0565b9050602081019050919050565b600081519050919050565b600081519050919050565b600082825260208201905092915050565b600081905092915050565b600082825260208201905092915050565b60006129fe82612a3b565b9050919050565b6000612a1082612a3b565b9050919050565b60008115159050919050565b6000819050919050565b600061ffff82169050919050565b600073ffffffffffffffffffffffffffffffffffffffff82169050919050565b6000819050919050565b600067ffffffffffffffff82169050919050565b6000612a8482612a8b565b9050919050565b6000612a9682612a3b565b9050919050565b82818337600083830152505050565b60005b83811015612aca578082015181840152602081019050612aaf565b83811115612ad9576000848401525b50505050565b60006002820490506001821680612af757607f821691505b60208210811415612b0b57612b0a612b82565b5b50919050565b612b1a82612be0565b810181811067ffffffffffffffff82111715612b3957612b38612bb1565b5b80604052505050565b6000612b4d82612b66565b9050919050565b6000612b5f82612bf1565b9050919050565b6000612b7182612bfe565b9050919050565b6000819050919050565b7f4e487b7100000000000000000000000000000000000000000000000000000000600052602260045260246000fd5b7f4e487b7100000000000000000000000000000000000000000000000000000000600052604160045260246000fd5b6000601f19601f8301169050919050565b60008160f01b9050919050565b60008160601b9050919050565b7f4e6f6e626c6f636b696e674c7a4170703a2063616c6c6572206d75737420626560008201527f204c7a4170700000000000000000000000000000000000000000000000000000602082015250565b7f7468657265206973206e6f7420656e6f7567682062616c616e636520746f207360008201527f656e6420746f2074686520646573744164647200000000000000000000000000602082015250565b7f4f776e61626c653a206e6577206f776e657220697320746865207a65726f206160008201527f6464726573730000000000000000000000000000000000000000000000000000602082015250565b7f4e6f6e626c6f636b696e674c7a4170703a206e6f2073746f726564206d65737360008201527f6167650000000000000000000000000000000000000000000000000000000000602082015250565b7f796f75206d75737420616c6c6f7720696e626f756e64206d657373616765732060008201527f746f20414c4c20636f6e7472616374732077697468207365745472757374656460208201527f52656d6f74652829000000000000000000000000000000000000000000000000604082015250565b7f616464726573732874686973292e62616c616e6365203c206d6573736167654660008201527f65652e2066756e64207468697320636f6e74726163742077697468206d6f726560208201527f2065746865720000000000000000000000000000000000000000000000000000604082015250565b7f4f776e61626c653a2063616c6c6572206973206e6f7420746865206f776e6572600082015250565b7f4c7a4170703a20696e76616c696420656e64706f696e742063616c6c65720000600082015250565b7f7468652062616c616e6365206f66207468697320636f6e74726163742069732060008201527f302e20706c732073656e642067617320666f72206d6573736167652066656573602082015250565b7f4e6f6e626c6f636b696e674c7a4170703a20696e76616c6964207061796c6f6160008201527f6400000000000000000000000000000000000000000000000000000000000000602082015250565b7f4c7a4170703a20696e76616c696420736f757263652073656e64696e6720636f60008201527f6e74726163740000000000000000000000000000000000000000000000000000602082015250565b612f79816129f3565b8114612f8457600080fd5b50565b612f9081612a05565b8114612f9b57600080fd5b50565b612fa781612a17565b8114612fb257600080fd5b50565b612fbe81612a2d565b8114612fc957600080fd5b50565b612fd581612a5b565b8114612fe057600080fd5b50565b612fec81612a65565b8114612ff757600080fd5b5056fe656e746572205f6e6f6e626c6f636b696e674c7a52656365697665206f6e20616464723d656e74657220706179206f6e20616464723d25732c20616d6f756e743d25732c20647374416464723d2573a26469706673582212208410c6295b3a1578e84db461d21cf7e7bd0170d0b389d3b4336b5f58ae119b7864736f6c63430008040033",
  "linkReferences": {},
  "deployedLinkReferences": {}
}